{
  "contractName": "KonukoToken",
  "abi": [
    {
      "inputs": [],
      "stateMutability": "nonpayable",
      "type": "constructor"
    },
    {
      "anonymous": false,
      "inputs": [
        {
          "indexed": true,
          "internalType": "address",
          "name": "_caller",
          "type": "address"
        },
        {
          "indexed": false,
          "internalType": "uint128",
          "name": "_caller_reword",
          "type": "uint128"
        },
        {
          "indexed": true,
          "internalType": "address",
          "name": "_account",
          "type": "address"
        },
        {
          "indexed": false,
          "internalType": "uint128",
          "name": "_snapshot",
          "type": "uint128"
        }
      ],
      "name": "MakeSnapshot",
      "type": "event"
    },
    {
      "anonymous": false,
      "inputs": [
        {
          "indexed": true,
          "internalType": "address",
          "name": "_from",
          "type": "address"
        },
        {
          "indexed": true,
          "internalType": "address",
          "name": "_to",
          "type": "address"
        },
        {
          "indexed": false,
          "internalType": "uint256",
          "name": "_value",
          "type": "uint256"
        },
        {
          "indexed": false,
          "internalType": "bytes",
          "name": "_data",
          "type": "bytes"
        }
      ],
      "name": "Transfer",
      "type": "event"
    },
    {
      "inputs": [
        {
          "internalType": "uint256",
          "name": "",
          "type": "uint256"
        }
      ],
      "name": "BURN_ADDRS",
      "outputs": [
        {
          "internalType": "address",
          "name": "",
          "type": "address"
        }
      ],
      "stateMutability": "view",
      "type": "function",
      "constant": true
    },
    {
      "inputs": [],
      "name": "CALLER_PROFIT",
      "outputs": [
        {
          "internalType": "uint128",
          "name": "",
          "type": "uint128"
        }
      ],
      "stateMutability": "view",
      "type": "function",
      "constant": true
    },
    {
      "inputs": [],
      "name": "FORK_HEIGHT",
      "outputs": [
        {
          "internalType": "uint32",
          "name": "",
          "type": "uint32"
        }
      ],
      "stateMutability": "view",
      "type": "function",
      "constant": true
    },
    {
      "inputs": [
        {
          "internalType": "uint256",
          "name": "",
          "type": "uint256"
        }
      ],
      "name": "PROOF_ADDRS",
      "outputs": [
        {
          "internalType": "address",
          "name": "",
          "type": "address"
        }
      ],
      "stateMutability": "view",
      "type": "function",
      "constant": true
    },
    {
      "inputs": [],
      "name": "SIGN_MESSAGE",
      "outputs": [
        {
          "internalType": "bytes",
          "name": "",
          "type": "bytes"
        }
      ],
      "stateMutability": "view",
      "type": "function",
      "constant": true
    },
    {
      "inputs": [],
      "name": "decimals",
      "outputs": [
        {
          "internalType": "uint8",
          "name": "",
          "type": "uint8"
        }
      ],
      "stateMutability": "view",
      "type": "function",
      "constant": true
    },
    {
      "inputs": [],
      "name": "name",
      "outputs": [
        {
          "internalType": "string",
          "name": "",
          "type": "string"
        }
      ],
      "stateMutability": "view",
      "type": "function",
      "constant": true
    },
    {
      "inputs": [],
      "name": "symbol",
      "outputs": [
        {
          "internalType": "string",
          "name": "",
          "type": "string"
        }
      ],
      "stateMutability": "view",
      "type": "function",
      "constant": true
    },
    {
      "inputs": [],
      "name": "totalSupply",
      "outputs": [
        {
          "internalType": "uint256",
          "name": "",
          "type": "uint256"
        }
      ],
      "stateMutability": "view",
      "type": "function",
      "constant": true
    },
    {
      "inputs": [
        {
          "internalType": "address",
          "name": "_to",
          "type": "address"
        },
        {
          "internalType": "uint256",
          "name": "_value",
          "type": "uint256"
        }
      ],
      "name": "transfer",
      "outputs": [
        {
          "internalType": "bool",
          "name": "success",
          "type": "bool"
        }
      ],
      "stateMutability": "nonpayable",
      "type": "function"
    },
    {
      "inputs": [
        {
          "internalType": "address",
          "name": "_to",
          "type": "address"
        },
        {
          "internalType": "uint256",
          "name": "_value",
          "type": "uint256"
        },
        {
          "internalType": "bytes",
          "name": "_data",
          "type": "bytes"
        }
      ],
      "name": "transfer",
      "outputs": [
        {
          "internalType": "bool",
          "name": "success",
          "type": "bool"
        }
      ],
      "stateMutability": "nonpayable",
      "type": "function"
    },
    {
      "inputs": [
        {
          "internalType": "address",
          "name": "_owner",
          "type": "address"
        }
      ],
      "name": "balanceOf",
      "outputs": [
        {
          "internalType": "uint256",
          "name": "balance",
          "type": "uint256"
        }
      ],
      "stateMutability": "view",
      "type": "function",
      "constant": true
    },
    {
      "inputs": [
        {
          "internalType": "address",
          "name": "_owner",
          "type": "address"
        }
      ],
      "name": "snapshotOf",
      "outputs": [
        {
          "internalType": "uint256",
          "name": "snapshot",
          "type": "uint256"
        }
      ],
      "stateMutability": "view",
      "type": "function",
      "constant": true
    },
    {
      "inputs": [
        {
          "internalType": "address",
          "name": "_target",
          "type": "address"
        }
      ],
      "name": "hasSnapshot",
      "outputs": [
        {
          "internalType": "bool",
          "name": "_hasSnapshot",
          "type": "bool"
        }
      ],
      "stateMutability": "view",
      "type": "function",
      "constant": true
    },
    {
      "inputs": [
        {
          "internalType": "bytes",
          "name": "_tx",
          "type": "bytes"
        }
      ],
      "name": "makeSnapshot",
      "outputs": [
        {
          "internalType": "int256",
          "name": "success",
          "type": "int256"
        }
      ],
      "stateMutability": "nonpayable",
      "type": "function"
    }
  ],
  "bytecode": "0x60806040526040518060400160405280601481526020017f4e656b6f6e69756d466f726b546f6b656e2e523300000000000000000000000081525060039080519060200190620000519291906200032e565b506040518060400160405280600681526020017f4b4f4e554b4f0000000000000000000000000000000000000000000000000000815250600490805190602001906200009f9291906200032e565b506012600560006101000a81548160ff021916908360ff1602179055506040518060400160405280734b647402e73185ae03b5591b43f5236eccfcff2373ffffffffffffffffffffffffffffffffffffffff1673ffffffffffffffffffffffffffffffffffffffff16815260200173e9b2857fd2500157122924efa5045a118d797a7773ffffffffffffffffffffffffffffffffffffffff1673ffffffffffffffffffffffffffffffffffffffff16815250600690600262000163929190620003b5565b506040518060c0016040528073bbfdcbbd22960b6fcf4a0a101b816614aa551c4b73ffffffffffffffffffffffffffffffffffffffff1673ffffffffffffffffffffffffffffffffffffffff16815260200173bc4517bc2dde774781e3d7b49677de3449d4d58173ffffffffffffffffffffffffffffffffffffffff1673ffffffffffffffffffffffffffffffffffffffff1681526020017362a87d9716b5826063d98294688ec76f774034d673ffffffffffffffffffffffffffffffffffffffff1673ffffffffffffffffffffffffffffffffffffffff16815260200173817570e7e0838ca0c6c136bf9701962ff7a6e56273ffffffffffffffffffffffffffffffffffffffff1673ffffffffffffffffffffffffffffffffffffffff16815260200173bd2746c132393fd822d971eecaf7f4cd770a547273ffffffffffffffffffffffffffffffffffffffff1673ffffffffffffffffffffffffffffffffffffffff16815260200161029973ffffffffffffffffffffffffffffffffffffffff1673ffffffffffffffffffffffffffffffffffffffff1681525060089060066200031192919062000437565b503480156200031f57600080fd5b506000600281905550620004e5565b828054600181600116156101000203166002900490600052602060002090601f016020900481019282601f106200037157805160ff1916838001178555620003a2565b82800160010185558215620003a2579182015b82811115620003a157825182559160200191906001019062000384565b5b509050620003b19190620004c6565b5090565b826002810192821562000424579160200282015b82811115620004235782518260006101000a81548173ffffffffffffffffffffffffffffffffffffffff021916908373ffffffffffffffffffffffffffffffffffffffff16021790555091602001919060010190620003c9565b5b509050620004339190620004c6565b5090565b828054828255906000526020600020908101928215620004b3579160200282015b82811115620004b25782518260006101000a81548173ffffffffffffffffffffffffffffffffffffffff021916908373ffffffffffffffffffffffffffffffffffffffff1602179055509160200191906001019062000458565b5b509050620004c29190620004c6565b5090565b5b80821115620004e1576000816000905550600101620004c7565b5090565b61217580620004f56000396000f3fe608060405234801561001057600080fd5b50600436106100f55760003560e01c80636e57161811610097578063a155398611610066578063a15539861461044d578063a201e0bd146104d0578063a9059cbb1461055d578063be45fd62146105c1576100f5565b80636e571618146102c257806370a082311461031a5780638b4bbc941461037257806395d89b41146103ca576100f5565b8063313ce567116100d3578063313ce567146101cb57806345b03029146101ec5780634d13e34a146102105780635f88286214610268576100f5565b806306fdde03146100fa57806318160ddd1461017d578063270e0cb01461019b575b600080fd5b61010261067a565b6040518080602001828103825283818151815260200191508051906020019080838360005b83811015610142578082015181840152602081019050610127565b50505050905090810190601f16801561016f5780820380516001836020036101000a031916815260200191505b509250505060405180910390f35b610185610718565b6040518082815260200191505060405180910390f35b6101a361071e565b60405180826fffffffffffffffffffffffffffffffff16815260200191505060405180910390f35b6101d361072b565b604051808260ff16815260200191505060405180910390f35b6101f461073e565b604051808263ffffffff16815260200191505060405180910390f35b61023c6004803603602081101561022657600080fd5b8101908080359060200190929190505050610744565b604051808273ffffffffffffffffffffffffffffffffffffffff16815260200191505060405180910390f35b6102aa6004803603602081101561027e57600080fd5b81019080803573ffffffffffffffffffffffffffffffffffffffff169060200190929190505050610780565b60405180821515815260200191505060405180910390f35b6102ee600480360360208110156102d857600080fd5b8101908080359060200190929190505050610809565b604051808273ffffffffffffffffffffffffffffffffffffffff16815260200191505060405180910390f35b61035c6004803603602081101561033057600080fd5b81019080803573ffffffffffffffffffffffffffffffffffffffff16906020019092919050505061083c565b6040518082815260200191505060405180910390f35b6103b46004803603602081101561038857600080fd5b81019080803573ffffffffffffffffffffffffffffffffffffffff169060200190929190505050610885565b6040518082815260200191505060405180910390f35b6103d26108fb565b6040518080602001828103825283818151815260200191508051906020019080838360005b838110156104125780820151818401526020810190506103f7565b50505050905090810190601f16801561043f5780820380516001836020036101000a031916815260200191505b509250505060405180910390f35b610455610999565b6040518080602001828103825283818151815260200191508051906020019080838360005b8381101561049557808201518184015260208101905061047a565b50505050905090810190601f1680156104c25780820380516001836020036101000a031916815260200191505b509250505060405180910390f35b610547600480360360208110156104e657600080fd5b810190808035906020019064010000000081111561050357600080fd5b82018360208201111561051557600080fd5b8035906020019184600183028401116401000000008311171561053757600080fd5b90919293919293905050506109d2565b6040518082815260200191505060405180910390f35b6105a96004803603604081101561057357600080fd5b81019080803573ffffffffffffffffffffffffffffffffffffffff16906020019092919080359060200190929190505050611272565b60405180821515815260200191505060405180910390f35b610662600480360360608110156105d757600080fd5b81019080803573ffffffffffffffffffffffffffffffffffffffff169060200190929190803590602001909291908035906020019064010000000081111561061e57600080fd5b82018360208201111561063057600080fd5b8035906020019184600183028401116401000000008311171561065257600080fd5b90919293919293905050506112c5565b60405180821515815260200191505060405180910390f35b60038054600181600116156101000203166002900480601f0160208091040260200160405190810160405280929190818152602001828054600181600116156101000203166002900480156107105780601f106106e557610100808354040283529160200191610710565b820191906000526020600020905b8154815290600101906020018083116106f357829003601f168201915b505050505081565b60025481565b68019ef22395402e000081565b600560009054906101000a900460ff1681565b61271081565b6008818154811061075157fe5b906000526020600020016000915054906101000a900473ffffffffffffffffffffffffffffffffffffffff1681565b6000806000808473ffffffffffffffffffffffffffffffffffffffff1673ffffffffffffffffffffffffffffffffffffffff16815260200190815260200160002060009054906101000a90046fffffffffffffffffffffffffffffffff166fffffffffffffffffffffffffffffffff1611156107ff5760019050610804565b600090505b919050565b6006816002811061081657fe5b016000915054906101000a900473ffffffffffffffffffffffffffffffffffffffff1681565b6000600160008373ffffffffffffffffffffffffffffffffffffffff1673ffffffffffffffffffffffffffffffffffffffff168152602001908152602001600020549050919050565b60008060008373ffffffffffffffffffffffffffffffffffffffff1673ffffffffffffffffffffffffffffffffffffffff16815260200190815260200160002060009054906101000a90046fffffffffffffffffffffffffffffffff166fffffffffffffffffffffffffffffffff169050919050565b60048054600181600116156101000203166002900480601f0160208091040260200160405190810160405280929190818152602001828054600181600116156101000203166002900480156109915780601f1061096657610100808354040283529160200191610991565b820191906000526020600020905b81548152906001019060200180831161097457829003601f168201915b505050505081565b6040518060400160405280601081526020017f544553540000000000000000000000000000000000000000000000000000000081525081565b600060416002026034018383905014610a53576040517f08c379a00000000000000000000000000000000000000000000000000000000081526004018080602001828103825260118152602001807f496e76616c6964207478206c656e67746800000000000000000000000000000081525060200191505060405180910390fd5b6000610aa484848080601f016020809104026020016040519081016040528093929190818152602001838380828437600081840152601f19601f820116905080830192505050505050506000611385565b90506000610af785858080601f016020809104026020016040519081016040528093929190818152602001838380828437600081840152601f19601f82011690508083019250505050505050601461149e565b90506000610b4a86868080601f016020809104026020016040519081016040528093929190818152602001838380828437600081840152601f19601f8201169050808301925050505050505060186115a8565b90503660008787602490603492610b639392919061210c565b915091506000836bffffffffffffffffffffffff1611610beb576040517f08c379a00000000000000000000000000000000000000000000000000000000081526004018080602001828103825260128152602001807f4e6f20736e617073686f7420616d6f756e74000000000000000000000000000081525060200191505060405180910390fd5b61271063ffffffff168463ffffffff1614610c6e576040517f08c379a000000000000000000000000000000000000000000000000000000000815260040180806020018281038252601a8152602001807f496e76616c696420626c6f636b20686569676874206669656c6400000000000081525060200191505060405180910390fd5b610cae82826040518060400160405280601081526020017f54455354000000000000000000000000000000000000000000000000000000008152506116b2565b610d20576040517f08c379a00000000000000000000000000000000000000000000000000000000081526004018080602001828103825260158152602001807f496e76616c6964204d455353414745206669656c64000000000000000000000081525060200191505060405180910390fd5b60001515610d2d86610780565b151514610da2576040517f08c379a00000000000000000000000000000000000000000000000000000000081526004018080602001828103825260178152602001807f536e617073686f7420416c72656164792065786973747300000000000000000081525060200191505060405180910390fd5b60005b600880549050811015610e98578573ffffffffffffffffffffffffffffffffffffffff1660088281548110610dd657fe5b9060005260206000200160009054906101000a900473ffffffffffffffffffffffffffffffffffffffff1673ffffffffffffffffffffffffffffffffffffffff161415610e8b576040517f08c379a000000000000000000000000000000000000000000000000000000000815260040180806020018281038252600b8152602001807f4255524e2074617267657400000000000000000000000000000000000000000081525060200191505060405180910390fd5b8080600101915050610da5565b506000610ef4610eef8a8a8080601f016020809104026020016040519081016040528093929190818152602001838380828437600081840152601f19601f8201169050808301925050505050505060006034611760565b61194a565b905060005b6002811015611042576060610f5a8b8b8080601f016020809104026020016040519081016040528093929190818152602001838380828437600081840152601f19601f82011690508083019250505050505050836041026034016041611760565b905060068260028110610f6957fe5b0160009054906101000a900473ffffffffffffffffffffffffffffffffffffffff1673ffffffffffffffffffffffffffffffffffffffff16610fab84836119b1565b73ffffffffffffffffffffffffffffffffffffffff1614611034576040517f08c379a00000000000000000000000000000000000000000000000000000000081526004018080602001828103825260198152602001807f496e76616c69642070726f6f6620616464722f6f726465722e0000000000000081525060200191505060405180910390fd5b508080600101915050610ef9565b50836bffffffffffffffffffffffff166000808873ffffffffffffffffffffffffffffffffffffffff1673ffffffffffffffffffffffffffffffffffffffff16815260200190815260200160002060006101000a8154816fffffffffffffffffffffffffffffffff02191690836fffffffffffffffffffffffffffffffff160217905550836bffffffffffffffffffffffff16600160008873ffffffffffffffffffffffffffffffffffffffff1673ffffffffffffffffffffffffffffffffffffffff168152602001908152602001600020819055506111456111243361083c565b68019ef22395402e00006fffffffffffffffffffffffffffffffff16611a90565b600160003373ffffffffffffffffffffffffffffffffffffffff1673ffffffffffffffffffffffffffffffffffffffff168152602001908152602001600020819055506111c66111be856bffffffffffffffffffffffff1668019ef22395402e00006fffffffffffffffffffffffffffffffff16611a90565b600254611a90565b6002819055508573ffffffffffffffffffffffffffffffffffffffff163373ffffffffffffffffffffffffffffffffffffffff167ff9e7ab4408cea03088a0bd2b5b76dd2f8791e515a15bebb5c74dd7d958a41eb768019ef22395402e00008760405180836fffffffffffffffffffffffffffffffff168152602001826bffffffffffffffffffffffff1681526020019250505060405180910390a36000965050505050505092915050565b600060606040518060400160405280600181526020016000815250905061129884611acc565b156112b0576112a8848483611adf565b9150506112bf565b6112bb848483611d79565b9150505b92915050565b60006112d085611acc565b1561132b57611324858585858080601f016020809104026020016040519081016040528093929190818152602001838380828437600081840152601f19601f82011690508083019250505050505050611adf565b905061137d565b61137a858585858080601f016020809104026020016040519081016040528093929190818152602001838380828437600081840152601f19601f82011690508083019250505050505050611d79565b90505b949350505050565b600081601483011015611400576040517f08c379a00000000000000000000000000000000000000000000000000000000081526004018080602001828103825260128152602001807f746f416464726573735f6f766572666c6f77000000000000000000000000000081525060200191505060405180910390fd5b601482018351101561147a576040517f08c379a00000000000000000000000000000000000000000000000000000000081526004018080602001828103825260158152602001807f746f416464726573735f6f75744f66426f756e6473000000000000000000000081525060200191505060405180910390fd5b60006c01000000000000000000000000836020860101510490508091505092915050565b600081600483011015611519576040517f08c379a00000000000000000000000000000000000000000000000000000000081526004018080602001828103825260118152602001807f746f55696e7433325f6f766572666c6f7700000000000000000000000000000081525060200191505060405180910390fd5b6004820183511015611593576040517f08c379a00000000000000000000000000000000000000000000000000000000081526004018080602001828103825260148152602001807f746f55696e7433325f6f75744f66426f756e647300000000000000000000000081525060200191505060405180910390fd5b60008260048501015190508091505092915050565b600081600c83011015611623576040517f08c379a00000000000000000000000000000000000000000000000000000000081526004018080602001828103825260118152602001807f746f55696e7439365f6f766572666c6f7700000000000000000000000000000081525060200191505060405180910390fd5b600c82018351101561169d576040517f08c379a00000000000000000000000000000000000000000000000000000000081526004018080602001828103825260148152602001807f746f55696e7439365f6f75744f66426f756e647300000000000000000000000081525060200191505060405180910390fd5b600082600c8501015190508091505092915050565b6000816040516020018082805190602001908083835b602083106116eb57805182526020820191506020810190506020830392506116c8565b6001836020036101000a038019825116818451168082178552505050505050905001915050604051602081830303815290604052805190602001208484604051602001808383808284378083019250505092505050604051602081830303815290604052805190602001201490509392505050565b606081601f830110156117db576040517f08c379a000000000000000000000000000000000000000000000000000000000815260040180806020018281038252600e8152602001807f736c6963655f6f766572666c6f7700000000000000000000000000000000000081525060200191505060405180910390fd5b828284011015611853576040517f08c379a000000000000000000000000000000000000000000000000000000000815260040180806020018281038252600e8152602001807f736c6963655f6f766572666c6f7700000000000000000000000000000000000081525060200191505060405180910390fd5b818301845110156118cc576040517f08c379a00000000000000000000000000000000000000000000000000000000081526004018080602001828103825260118152602001807f736c6963655f6f75744f66426f756e647300000000000000000000000000000081525060200191505060405180910390fd5b60608215600081146118ed576040519150600082526020820160405261193e565b6040519150601f8416801560200281840101858101878315602002848b0101015b8183101561192b578051835260208301925060208101905061190e565b50868552601f19601f8301166040525050505b50809150509392505050565b6000606061199f6040518060400160405280601a81526020017f19457468657265756d205369676e6564204d6573736167653a0a00000000000081525061199a6119948651611f17565b86612068565b612068565b90508080519060200120915050919050565b60008060008060418551146119cc5760009350505050611a8a565b6020850151925060408501519150606085015160001a9050601b8160ff1610156119f757601b810190505b601b8160ff1614158015611a0f5750601c8160ff1614155b15611a205760009350505050611a8a565b60018682858560405160008152602001604052604051808581526020018460ff1681526020018381526020018281526020019450505050506020604051602081039080840390855afa158015611a7a573d6000803e3d6000fd5b5050506020604051035193505050505b92915050565b6000817fffffffffffffffffffffffffffffffffffffffffffffffffffffffffffffffff03831115611ac157600080fd5b818301905092915050565b600080823b905060008111915050919050565b600082611aeb3361083c565b1015611af657600080fd5b611b08611b023361083c565b846120f2565b600160003373ffffffffffffffffffffffffffffffffffffffff1673ffffffffffffffffffffffffffffffffffffffff16815260200190815260200160002081905550611b5d611b578561083c565b84611a90565b600160008673ffffffffffffffffffffffffffffffffffffffff1673ffffffffffffffffffffffffffffffffffffffff1681526020019081526020016000208190555060008490508073ffffffffffffffffffffffffffffffffffffffff1663c0ee0b8a3386866040518463ffffffff1660e01b8152600401808473ffffffffffffffffffffffffffffffffffffffff16815260200183815260200180602001828103825283818151815260200191508051906020019080838360005b83811015611c35578082015181840152602081019050611c1a565b50505050905090810190601f168015611c625780820380516001836020036101000a031916815260200191505b50945050505050600060405180830381600087803b158015611c8357600080fd5b505af1158015611c97573d6000803e3d6000fd5b505050508473ffffffffffffffffffffffffffffffffffffffff163373ffffffffffffffffffffffffffffffffffffffff167fe19260aff97b920c7df27010903aeb9c8d2be5d310a2c67824cf3f15396e4c1686866040518083815260200180602001828103825283818151815260200191508051906020019080838360005b83811015611d32578082015181840152602081019050611d17565b50505050905090810190601f168015611d5f5780820380516001836020036101000a031916815260200191505b50935050505060405180910390a360019150509392505050565b600082611d853361083c565b1015611d9057600080fd5b611da2611d9c3361083c565b846120f2565b600160003373ffffffffffffffffffffffffffffffffffffffff1673ffffffffffffffffffffffffffffffffffffffff16815260200190815260200160002081905550611df7611df18561083c565b84611a90565b600160008673ffffffffffffffffffffffffffffffffffffffff1673ffffffffffffffffffffffffffffffffffffffff168152602001908152602001600020819055508373ffffffffffffffffffffffffffffffffffffffff163373ffffffffffffffffffffffffffffffffffffffff167fe19260aff97b920c7df27010903aeb9c8d2be5d310a2c67824cf3f15396e4c1685856040518083815260200180602001828103825283818151815260200191508051906020019080838360005b83811015611ed1578082015181840152602081019050611eb6565b50505050905090810190601f168015611efe5780820380516001836020036101000a031916815260200191505b50935050505060405180910390a3600190509392505050565b606060008290506000811415611f65576040518060400160405280600181526020017f3000000000000000000000000000000000000000000000000000000000000000815250915050612063565b600081905060005b60008214611f8f578080600101915050600a8281611f8757fe5b049150611f6d565b60608167ffffffffffffffff81118015611fa857600080fd5b506040519080825280601f01601f191660200182016040528015611fdb5781602001600182028036833780820191505090505b50905060006001830390505b6000851461205a576000600a8681611ffb57fe5b0660300160f81b9050808383806001900394508151811061201857fe5b60200101907effffffffffffffffffffffffffffffffffffffffffffffffffffffffffffff1916908160001a905350600a868161205157fe5b04955050611fe7565b81955050505050505b919050565b6060806040519050835180825260208201818101602087015b8183101561209e5780518352602083019250602081019050612081565b50855192508351830184528091508282019050602086015b818310156120d357805183526020830192506020810190506120b6565b50601f19601f8851850115830101166040525050508091505092915050565b60008183101561210157600080fd5b818303905092915050565b6000808585111561211c57600080fd5b8386111561212957600080fd5b600185028301915084860390509450949250505056fea264697066735822122045c7ee55312bf9f198f63d505846b577e8fb537405f927a91acdba43765ed41764736f6c63430007030033",
  "immutableReferences": {},
  "source": "pragma solidity >=0.7.3;\n// SPDX-License-Identifier: MIT\n/**\n * KONUKO-token\n * Nekonium\n * ERC223\n * \n * \n * \n * \n * ERC223\n * makeSnapshot\n * \n * hasSnapshot\n * \n * \n */\n\n \n//https://github.com/LykkeCity/EthereumApiDotNetCore/blob/master/src/ContractBuilder/contracts/token/SafeMath.sol\nlibrary SafeMath {\n    uint256 constant public MAX_UINT256 =0xFFFFFFFFFFFFFFFFFFFFFFFFFFFFFFFFFFFFFFFFFFFFFFFFFFFFFFFFFFFFFFFF;\n    \n    function safeAdd(uint256 x, uint256 y) internal pure returns (uint256 z)\n    {\n        if (x > MAX_UINT256 - y){\n            revert();\n        }\n        return x + y;\n    }\n    \n    function safeSub(uint256 x, uint256 y) internal pure returns (uint256 z)\n    {\n        if (x < y){\n            revert();\n        }\n        return x - y;\n    }\n    \n    function safeMul(uint256 x, uint256 y) internal pure returns (uint256 z)\n    {\n        if (y == 0){\n            return 0;\n        }\n        if (x > MAX_UINT256 / y){\n            revert();\n        }\n        return x * y;\n    }\n}\n\n//https://github.com/GNSPS/solidity-bytes-utils\nlibrary BytesLib{\n    function toUint32(bytes memory _bytes, uint256 _start) internal pure returns (uint32)\n    {\n        require(_start + 4 >= _start, \"toUint32_overflow\");\n        require(_bytes.length >= _start + 4, \"toUint32_outOfBounds\");\n        uint32 tempUint;\n        assembly {\n            tempUint := mload(add(add(_bytes, 0x4), _start))\n        }\n\n        return tempUint;\n    }\n    function toUint64(bytes memory _bytes, uint256 _start) internal pure returns (uint64)\n    {\n        require(_start + 8 >= _start, \"toUint64_overflow\");\n        require(_bytes.length >= _start + 8, \"toUint64_outOfBounds\");\n        uint64 tempUint;\n        assembly {\n            tempUint := mload(add(add(_bytes, 0x8), _start))\n        }\n        return tempUint;\n    }\n    function toUint96(bytes memory _bytes, uint256 _start) internal pure returns (uint96)\n    {\n        require(_start + 12 >= _start, \"toUint96_overflow\");\n        require(_bytes.length >= _start + 12, \"toUint96_outOfBounds\");\n        uint96 tempUint;\n\n        assembly {\n            tempUint := mload(add(add(_bytes, 0xc), _start))\n        }\n\n        return tempUint;\n    }\n    function toUint128(bytes memory _bytes, uint256 _start) internal pure returns (uint128)\n    {\n        require(_start + 16 >= _start, \"toUint128_overflow\");\n        require(_bytes.length >= _start + 16, \"toUint128_outOfBounds\");\n        uint128 tempUint;\n\n        assembly {\n            tempUint := mload(add(add(_bytes, 0x10), _start))\n        }\n\n        return tempUint;\n    }\n    function slice(bytes memory _bytes,uint256 _start,uint256 _length) internal pure returns (bytes memory){\n        require(_length + 31 >= _length, \"slice_overflow\");\n        require(_start + _length >= _start, \"slice_overflow\");\n        require(_bytes.length >= _start + _length, \"slice_outOfBounds\");\n\n        bytes memory tempBytes;\n\n        assembly {\n            switch iszero(_length)\n            case 0 {\n                // Get a location of some free memory and store it in tempBytes as\n                // Solidity does for memory variables.\n                tempBytes := mload(0x40)\n\n                // The first word of the slice result is potentially a partial\n                // word read from the original array. To read it, we calculate\n                // the length of that partial word and start copying that many\n                // bytes into the array. The first word we copy will start with\n                // data we don't care about, but the last `lengthmod` bytes will\n                // land at the beginning of the contents of the new array. When\n                // we're done copying, we overwrite the full first word with\n                // the actual length of the slice.\n                let lengthmod := and(_length, 31)\n\n                // The multiplication in the next line is necessary\n                // because when slicing multiples of 32 bytes (lengthmod == 0)\n                // the following copy loop was copying the origin's length\n                // and then ending prematurely not copying everything it should.\n                let mc := add(add(tempBytes, lengthmod), mul(0x20, iszero(lengthmod)))\n                let end := add(mc, _length)\n\n                for {\n                    // The multiplication in the next line has the same exact purpose\n                    // as the one above.\n                    let cc := add(add(add(_bytes, lengthmod), mul(0x20, iszero(lengthmod))), _start)\n                } lt(mc, end) {\n                    mc := add(mc, 0x20)\n                    cc := add(cc, 0x20)\n                } {\n                    mstore(mc, mload(cc))\n                }\n\n                mstore(tempBytes, _length)\n\n                //update free-memory pointer\n                //allocating the array padded to 32 bytes like the compiler does now\n                mstore(0x40, and(add(mc, 31), not(31)))\n            }\n            //if we want a zero-length slice let's just return a zero-length array\n            default {\n                tempBytes := mload(0x40)\n                //zero out the 32 bytes slice we are about to return\n                //we need to do it because Solidity does not garbage collect\n                mstore(tempBytes, 0)\n\n                mstore(0x40, add(tempBytes, 0x20))\n            }\n        }\n\n        return tempBytes;\n    }\n    function concat(bytes memory _preBytes,bytes memory _postBytes) internal pure returns (bytes memory)\n    {\n        bytes memory tempBytes;\n\n        assembly {\n            // Get a location of some free memory and store it in tempBytes as\n            // Solidity does for memory variables.\n            tempBytes := mload(0x40)\n\n            // Store the length of the first bytes array at the beginning of\n            // the memory for tempBytes.\n            let length := mload(_preBytes)\n            mstore(tempBytes, length)\n\n            // Maintain a memory counter for the current write location in the\n            // temp bytes array by adding the 32 bytes for the array length to\n            // the starting location.\n            let mc := add(tempBytes, 0x20)\n            // Stop copying when the memory counter reaches the length of the\n            // first bytes array.\n            let end := add(mc, length)\n\n            for {\n                // Initialize a copy counter to the start of the _preBytes data,\n                // 32 bytes into its memory.\n                let cc := add(_preBytes, 0x20)\n            } lt(mc, end) {\n                // Increase both counters by 32 bytes each iteration.\n                mc := add(mc, 0x20)\n                cc := add(cc, 0x20)\n            } {\n                // Write the _preBytes data into the tempBytes memory 32 bytes\n                // at a time.\n                mstore(mc, mload(cc))\n            }\n\n            // Add the length of _postBytes to the current length of tempBytes\n            // and store it as the new length in the first 32 bytes of the\n            // tempBytes memory.\n            length := mload(_postBytes)\n            mstore(tempBytes, add(length, mload(tempBytes)))\n\n            // Move the memory counter back from a multiple of 0x20 to the\n            // actual end of the _preBytes data.\n            mc := end\n            // Stop copying when the memory counter reaches the new combined\n            // length of the arrays.\n            end := add(mc, length)\n\n            for {\n                let cc := add(_postBytes, 0x20)\n            } lt(mc, end) {\n                mc := add(mc, 0x20)\n                cc := add(cc, 0x20)\n            } {\n                mstore(mc, mload(cc))\n            }\n\n            // Update the free-memory pointer by padding our last write location\n            // to 32 bytes: add 31 bytes to the end of tempBytes to move to the\n            // next 32 byte block, then round down to the nearest multiple of\n            // 32. If the sum of the length of the two arrays is zero then add\n            // one before rounding down to leave a blank 32 bytes (the length block with 0).\n            mstore(0x40, and(\n              add(add(end, iszero(add(length, mload(_preBytes)))), 31),\n              not(31) // Round down to the nearest 32 bytes.\n            ))\n        }\n\n        return tempBytes;\n    }    \n    function toAddress(bytes memory _bytes, uint256 _start) internal pure returns (address)\n    {\n        require(_start + 20 >= _start, \"toAddress_overflow\");\n        require(_bytes.length >= _start + 20, \"toAddress_outOfBounds\");\n        address tempAddress;\n        assembly {\n            tempAddress := div(mload(add(add(_bytes, 0x20), _start)), 0x1000000000000000000000000)\n        }\n        return tempAddress;\n    }\n    /**\n     * https://ethereum.stackexchange.com/questions/884/how-to-convert-an-address-to-bytes-in-solidity\n     */\n    function toBytes(address a) internal pure returns (bytes memory b){\n        assembly {\n            let m := mload(0x40)\n            a := and(a, 0xFFFFFFFFFFFFFFFFFFFFFFFFFFFFFFFFFFFFFFFF)\n            mstore(add(m, 20), xor(0x140000000000000000000000000000000000000000, a))\n            mstore(0x40, add(m, 52))\n            b := m\n       }\n    }\n    function bytesEquals(bytes calldata a,bytes memory b) internal pure returns(bool)\n    {\n        return keccak256(abi.encodePacked(a)) == keccak256(abi.encodePacked(b));\n    }\n}\n\n/*\n * https://gist.github.com/BjornvdLaan/e41d292339bbdebb831d0b976e1804e8 \n */\nlibrary ECDSA\n{\n    /**\n    * @dev Recover signer address from a message by using their signature\n    * @param hash bytes32 message, the hash is the signed message. What is recovered is the signer address.\n    * @param signature bytes signature, the signature is generated using web3.eth.sign()\n    */\n    function recover(bytes32 hash, bytes memory signature) internal pure returns (address)\n    {\n        bytes32 r;\n        bytes32 s;\n        uint8 v;\n        \n        // Check the signature length\n        if (signature.length != 65) {\n            return (address(0));\n        }\n        \n        // Divide the signature in r, s and v variables with inline assembly.\n        assembly {\n            r := mload(add(signature, 0x20))\n            s := mload(add(signature, 0x40))\n            v := byte(0, mload(add(signature, 0x60)))\n        }\n        \n        // Version of signature should be 27 or 28, but 0 and 1 are also possible versions\n        if (v < 27) {\n            v += 27;\n        }\n        // If the version is correct return the signer address\n        if (v != 27 && v != 28) {\n            return (address(0));\n        } else {\n            // solium-disable-next-line arg-overflow\n            return ecrecover(hash, v, r, s);\n        }\n    }\n\n    /**\n    * toEthSignedMessageHash\n    * @dev prefix a bytes32 value with \"\\x19Ethereum Signed Message:\"\n    * and hash the result\n    */\n    function toEthSignedMessageHash(bytes32 hash) internal pure returns (bytes32)\n    {\n        return keccak256(abi.encodePacked(\"\\x19Ethereum Signed Message:\\n32\", hash)\n        );\n    }\n    function uintToStr(uint _i) internal pure returns (bytes memory _uintAsString) {\n        uint number = _i;\n        if (number == 0) {\n            return \"0\";\n        }\n        uint j = number;\n        uint len;\n        while (j != 0) {\n            len++;\n            j /= 10;\n        }\n        bytes memory bstr = new bytes(len);\n        uint k = len - 1;\n        while (number != 0) {\n        \tbytes1 b= bytes1(uint8(48 + number % 10));\n            bstr[k--] = b;\n            number /= 10;\n        }\n        return bstr;\n    }\n\n    function toEthSignedMessageHash(bytes memory data) internal pure returns (bytes32)\n    {\n        bytes memory a=BytesLib.concat(\n            \"\\x19Ethereum Signed Message:\\n\",\n            BytesLib.concat(uintToStr(data.length),data)\n        );\n        // bytes memory a=BytesLib.concat(\n        //     \"\\x19Ethereum Signed Message:\\n\",uintToStr(data.length)\n        // );\n        // bytes memory b=BytesLib.concat(a,data);\n        return keccak256(a);\n    }    \n}\n\n\n\n\n\nabstract contract ContractReceiver\n{\n    function tokenFallback(address _from, uint _value, bytes calldata _data) external virtual ;\n}\n\n\n\n\ncontract KonukoToken\n{\n    event Transfer(address indexed _from, address indexed _to, uint256 _value, bytes _data);\n    event MakeSnapshot(address indexed _caller,uint128 _caller_reword,address indexed _account,uint128 _snapshot);\n    \n    mapping(address => uint128) private snapshots;//\n    mapping(address => uint256) private balances;//\n    \n    \n    uint256 public totalSupply;\n    ///////\n    //<TOKEN PARAMETOR>\n    ///////\n    string public name    = \"NekoniumForkToken.R3\";\n    string public symbol  = \"KONUKO\";\n    uint8 public decimals = 18;\n    address[2] public PROOF_ADDRS=[\n        0x4B647402e73185AE03b5591B43F5236eCcfcff23,\n        0xE9B2857Fd2500157122924EFA5045A118D797A77\n    ];\n    bytes public constant SIGN_MESSAGE = \"TEST\\x00\\x00\\x00\\x00\\x00\\x00\\x00\\x00\\x00\\x00\\x00\\x00\";\n    //bytes public constant SIGN_MESSAGE = \"KonukoToken/0001\";   //MUST BE 16 bytes!\n    uint32 public constant FORK_HEIGHT=10000;                  //HF HEIGHT!;\n    uint128 public constant CALLER_PROFIT=299*100000000000000000; //CALLER REWORD!\n    address[] public BURN_ADDRS=[\n        0xBbFdCBbD22960B6fcf4a0a101b816614aa551c4b,\n        0xBc4517bc2ddE774781E3D7B49677DE3449D4D581,\n        0x62A87d9716b5826063d98294688ec76F774034d6,\n        0x817570E7E0838ca0c6c136bF9701962FF7a6e562,\n        0xbd2746c132393fD822D971EecAF7f4cd770A5472,\n        0x0000000000000000000000000000000000000299\n    ];\n    ///////\n    //</TOKEN PARAMETOR>\n    ///////\n\n    constructor() \n    {\n        //Supply of 100 tokens with 18 decimals. (100 + 18 times zero)\n        totalSupply = 0;\n    }\n\n\n    // Function that is called when a user or another contract wants to transfer funds .\n    function transfer(address _to, uint _value, bytes calldata _data) public returns (bool success){\n        if(isContract(_to)) {\n            return transferToContract(_to, _value, _data);\n        }else {\n            return transferToAddress(_to, _value, _data);\n        }\n    }\n  \n    // Standard function transfer similar to ERC20 transfer with no _data .\n    // Added due to backwards compatibility reasons .\n    function transfer(address _to, uint _value) public returns (bool success){\n        //standard function transfer similar to ERC20 transfer with no _data\n        //added due to backwards compatibility reasons\n        bytes memory empty=\"\\x00\";\n        if(isContract(_to)) {\n            return transferToContract(_to, _value, empty);\n        }else{\n            return transferToAddress(_to, _value, empty);\n        }\n    }\n\n    //assemble the given address bytecode. If bytecode exists then the _addr is a contract.\n    function isContract(address _addr) private view returns (bool is_contract){\n        uint length;\n        assembly {\n            //retrieve the size of the code on target address, this needs assembly\n            length := extcodesize(_addr)\n        }\n        return (length>0);\n    }\n\n    //function that is called when transaction target is an address\n    function transferToAddress(address _to, uint _value, bytes memory _data) private returns (bool success)\n    {\n        if (balanceOf(msg.sender) < _value){\n            revert();\n        }\n        balances[msg.sender] = SafeMath.safeSub(balanceOf(msg.sender), _value);\n        balances[_to] = SafeMath.safeAdd(balanceOf(_to), _value);\n        emit Transfer(msg.sender, _to, _value, _data);\n        return true;\n    }\n    \n    //function that is called when transaction target is a contract\n    function transferToContract(address _to, uint _value, bytes memory _data) private returns (bool success)\n    {\n        if (balanceOf(msg.sender) < _value){\n            revert();\n        }\n        balances[msg.sender] = SafeMath.safeSub(balanceOf(msg.sender), _value);\n        balances[_to] = SafeMath.safeAdd(balanceOf(_to), _value);\n        ContractReceiver receiver = ContractReceiver(_to);\n        receiver.tokenFallback(msg.sender, _value, _data);\n        emit Transfer(msg.sender, _to, _value, _data);\n        return true;\n    }\n    \n    \n    function balanceOf(address _owner) public view  returns (uint balance)\n    {\n        return balances[_owner];\n    }\n    function snapshotOf(address _owner) public view  returns (uint snapshot)\n    {\n        return snapshots[_owner];\n    }\n    \n       \n    /**\n     * .\n     * snapshotmap0\n     */\n    function hasSnapshot(address _target) public view returns (bool _hasSnapshot)\n    {\n        if(snapshots[_target]>0){\n            return true;\n        }\n        return false;\n    }\n    // event eventDebuggerBytes(string dm, bytes test);\n    // event eventDebuggerBytes32(string dm, bytes32 test);\n    // event eventDebuggerAddr(string dm, address test);\n\n\n    /**\n     * \n     * \n     * \n     * \n     * CALLER_PROFITamount\n     * \n     * - _tx[address]snapshot\n     * - amount0\n     * - heightmessage\n     * - _tx[address]BURN_ADDRS\n     * - _tx[sign]PROOF_ADDRS\n     * \n     * \n     * @param _tx byte[52+n*64]\n     * [address][amount][height][message]\n     * address as bytes20 \n     * amount as uint96 bigendian wie\n     * height as uint32 bigendian \n     * message as bytes16 HF\n     * sign[n] as byte64 \n     */\n    function makeSnapshot(bytes calldata _tx) public returns (int success)\n    {\n        require(_tx.length==52+PROOF_ADDRS.length*65,\"Invalid tx length\");\n\n        address account=BytesLib.toAddress(_tx,0);//20\n        uint32 height=BytesLib.toUint32(_tx,20);  //4\n        uint96 amount=BytesLib.toUint96(_tx,24);  //12\n        bytes calldata message=_tx[36:52];        //16\n\n        require(amount>0,\"No snapshot amount\");                                       //0\n        require(height==FORK_HEIGHT,\"Invalid block height field\");                    //HF\n        require(BytesLib.bytesEquals(message,SIGN_MESSAGE),\"Invalid MESSAGE field\");  //\n        require(hasSnapshot(account)==false,\"Snapshot Already exists\");                 //\n        //require(msg.value==0); //payable\n\n        //\n        for (uint i=0; i<BURN_ADDRS.length;i++){\n            if(BURN_ADDRS[i]==account){\n                revert(\"BURN target\");//\n            }\n        }\n        //\n        bytes32 signe_hash=ECDSA.toEthSignedMessageHash(BytesLib.slice(_tx,0,52));//bytes\n        // bytes memory data=BytesLib.slice(_tx,0,52);\n        // eventDebuggerBytes(\"abi\",\"\\x19Ethereum Signed Message:\\n\");\n        // eventDebuggerBytes(\"abi\",ECDSA.uintToStr(data.length));\n        // eventDebuggerBytes(\"abi\",data);\n        // eventDebuggerBytes(\"signe_hash\",BytesLib.slice(_tx,0,52));\n        // eventDebuggerBytes32(\"signe_hash\",signe_hash);\n        for(uint i=0;i<PROOF_ADDRS.length;i++){\n            bytes memory signe=BytesLib.slice(_tx,52+65*i,65);     //\n            // eventDebuggerBytes(\"signe\",signe);\n            // eventDebuggerAddr(\"hash\",ECDSA.recover(signe_hash,signe));\n            if(ECDSA.recover(signe_hash,signe)!=PROOF_ADDRS[i]){\n                revert(\"Invalid proof addr/order.\");//\n            }\n        }\n\n        //\n        snapshots[account]=amount;    //\n        balances[account]=amount;    //\n        \n        //\n        balances[msg.sender]=SafeMath.safeAdd(balanceOf(msg.sender),CALLER_PROFIT);\n        //totalSupply\n        totalSupply=SafeMath.safeAdd(SafeMath.safeAdd(amount,CALLER_PROFIT),totalSupply);\n        //\n        emit MakeSnapshot(msg.sender,CALLER_PROFIT,account,amount);\n        return 0;\n    }\n}\n\n\n",
  "sourcePath": "/mnt/d/project.public/nekonium project/KonukoToken/contracts/KonukoToken.sol",
  "compiler": {
    "name": "solc",
    "version": "0.7.3+commit.9bfce1f6.Emscripten.clang"
  },
  "schemaVersion": "3.3.3",
  "updatedAt": "2021-01-17T09:09:17.343Z",
  "networkType": "ethereum",
  "devdoc": {
    "kind": "dev",
    "methods": {
      "makeSnapshot(bytes)": {
        "params": {
          "_tx": "byte[52+n*64] [address][amount][height][message] address as bytes20  amount as uint96 bigendian wie height as uint32 bigendian  message as bytes16 HF sign[n] as byte64 "
        }
      }
    },
    "version": 1
  },
  "userdoc": {
    "kind": "user",
    "methods": {
      "hasSnapshot(address)": {
        "notice": ". snapshotmap0"
      },
      "makeSnapshot(bytes)": {
        "notice": "    CALLER_PROFITamount  - _tx[address]snapshot - amount0 - heightmessage - _tx[address]BURN_ADDRS - _tx[sign]PROOF_ADDRS  "
      }
    },
    "version": 1
  }
}